:03000000020026D5
:0C002600787FE4F6D8FD75810802006DBB
:03001F00010800D5
:1000030075985075CADC75CCDC75CBFF75CDFF7563
:07001300C834D2ACD2AF22C9
:05001A0012000380FE4E
:030023000200B226
:1000B200C0E0C0D0309818C298E599B47F0E050808
:1000C200E508D3940A400875E7608003750800309C
:0900D2009902C299D0D0D0E032AD
:1000320002001AE493A3F8E493A34003F68001F2CA
:1000420008DFF48029E493A3F85407240CC8C333CF
:10005200C4540F4420C8834004F456800146F6DF9E
:10006200E4800B010204081020408090001FE47E0F
:10007200019360BCA3FF543F30E509541FFEE49393
:10008200A360010ECF54C025E060A840B8E493A35A
:10009200FAE493A3F8E493A3C8C582C8CAC583CA85
:1000A200F0A3C8C582C8CAC583CADFE9DEE780BE3D
:0100220000DD
:00000001FF
