:0300000002000EED
:0C000E00787FE4F6D8FD758128020055CB
:10024200D2AF1202551201AC8E278F287F02120202
:030252002A80F20D
:03000B0002016D82
:10016D00C0E0C0F0C083C082C0D075D000C000C058
:10017D0001C002C003C004C005C006C007AF28AE51
:10018D002712009AD007D006D005D004D003D00294
:0F019D00D001D000D0D0D082D083D0F0D0E032CB
:10025500538E7F5389F0758A58758CFFC28DD28C69
:03026500D2A922F9
:1001AC00E4F521F522D2B47F0212027BC2B430B541
:1001BC00FD7F0112027B0522E5227002052120B58C
:1001CC00F0AE21FF7C007D111201067D0A12011890
:0401DC008E218F22BF
:0101E00022FC
:0D027B00EFD3940040077E47DEFE1F80F3A6
:010288002253
:10026800EFD39400400C007E1E7D28DDFEDEFC1FCF
:0202780080EE16
:01027A002261
:10022A00EFD39400401100007E0D7D2D7CD6DCFEBC
:07023A00DDFCDEFA1F80E984
:01024100229A
:10020D001011C0F9A4B0999282F880908883C6A18C
:0C021D00868E08090102030405000000A1
:04009A008E238F24FE
:10009E00752500752601E4FBAC25AD26AE23AF24F5
:1000AE001201187C007D0A12011874092BF8A6059E
:1000BE00AE25AF267C007D0A1201068E258F260BFB
:1000CE00BB04D5AF0805081201E1E508D39403403F
:1000DE0003E4F508E50C701FE508C394024018E52B
:1000EE0008D394024003E4F508E50B700AE508D343
:0700FE0094014003E4F50842
:0101050022D7
:1001E1007E0143900F74092FF8E62411F8E6F5A07B
:1001F100BF010353A07FEFD394034002E4FFEEA8B5
:0B02010007088002C333D8FCF45290C1
:01020C0022CF
:10001A00020242E493A3F8E493A34003F68001F2B8
:10002A0008DFF48029E493A3F85407240CC8C333E7
:10003A00C4540F4420C8834004F456800146F6DFB6
:10004A00E4800B010204081020408090020DE47E37
:10005A00019360BCA3FF543F30E509541FFEE493AB
:10006A00A360010ECF54C025E060A840B8E493A372
:10007A00FAE493A3F8E493A3C8C582C8CAC583CA9D
:10008A00F0A3C8C582C8CAC583CADFE9DEE780BE55
:0102290000D4
:10010600EF8DF0A4A8F0CF8CF0A428CE8DF0A42E0D
:02011600FE22C7
:10011800BC000BBE0029EF8DF084FFADF022E4CCCB
:10012800F875F008EF2FFFEE33FEEC33FCEE9DEC94
:10013800984005FCEE9DFE0FD5F0E9E4CEFD22EDDA
:10014800F8F5F0EE8420D21CFEADF075F008EF2F24
:10015800FFED33FD4007985006D5F0F222C398FD15
:050168000FD5F0EA22B2
:00000001FF
