:03000000020003F8
:0C000300787FE4F6D8FD75810802004A01
:0300F30001080001
:1000D700E4FEEEC39F500B7D207C29DCFEDDFC0E89
:0200E70080F0A7
:0100E90022F4
:10008F00ED64506003BD701443800FAE0805087413
:10009F0001A806088002C333D8FC801AED646360A0
:1000AF0003BD431543800FAE0805087408A8060862
:1000BF008002C313D8FCF45280C3E5086480948493
:0800CF004003E4F5080200D72C
:0900EA007D637F1E12008F80F778
:10000F000200EAE493A3F8E493A34003F68001F21D
:10001F0008DFF48029E493A3F85407240CC8C333F2
:10002F00C4540F4420C8834004F456800146F6DFC1
:10003F00E4800B01020408102040809000F3E47E5E
:10004F00019360BCA3FF543F30E509541FFEE493B6
:10005F00A360010ECF54C025E060A840B8E493A37D
:10006F00FAE493A3F8E493A3C8C582C8CAC583CAA8
:10007F00F0A3C8C582C8CAC583CADFE9DEE780BE60
:0100F6000009
:00000001FF
