:0300000002088D66
:0C088D00787FE4F6D8FD7581570208D48E
:0D0C1B00EFD3940040077E47DEFE1F80F3FC
:010C280022A9
:100BF500EFD39400400C007E1E7D28DDFEDEFC1F39
:020C050080EE7F
:010C070022CA
:100BC600EFD39400401100007E0D7D2D7CD6DCFE17
:070BD600DDFCDEFA1F80E9DF
:010BDD0022F5
:020919008F4EFF
:10091B00D297D295755180C2947F05120C1BE4F5CA
:10092B0050C295AF4EEF3395E0FEEFA8500880050F
:10093B00C333CE33CED8F93392977F01120C1B0001
:10094B00D295309612AF507480A807088003A2E7A7
:10095B0013D8FB424F800FAF50E4A807088003A2C7
:10096B00E713D8FB424F7F01120C1B000550C3E568
:0F097B00506480948840AAD297D295D294AF4FFF
:01098A00224A
:020A6A00AD07D6
:100A6C00E4FB2094367980D296FA2095FDEDFF3385
:100A7C0095E0FEEFA802088005C333CE33CED8F93B
:100A8C003392963095FD30970CE9A802088002C38A
:0D0A9C0013D8FC42030ABA08D1D296AF036A
:010AA900222A
:080A25008B498A4A894B8D4C74
:100A2D00C294E4F54DC3E54C6480F8E54D648098BF
:100A3D005022AB49AA4AA94BAF4DEF3395E08F82B7
:100A4D00F5831206C1FF1209197408254DF8A60782
:0C0A5D00054D80D1D2947B007A0079080E
:010A6900226A
:100003005005B06E756D3A202020210000000000DD
:03001300000000EA
:100B53007F01120BC61206EE7F0A120BC67F5312D9
:100B63000A6A9005B5EFF060F47B017A0579B0E489
:0C0B7300FDFF1207E07F01120BC680E1BD
:100C0800D2C0D2C17F01120C1BC2C07F01120C1BC3
:030C1800C2C12234
:100B1E00E4F548C2C1C2C07F01120C1BD2C030C066
:100B2E001A05487F01120C1BC3E5486480948A4065
:100B3E00EDD2C17F01120C1B7F0022D2C17F0112A8
:040B4E000C1B7F01FC
:010B52002280
:100BDE00C2C0C2C17F01120C1BD2C17F01120C1BFD
:070BEE00D2C07F01020C1BC5
:020AAA008F4675
:100AAC00C2C17F01120C1BE4F547C2C1AF47E5463A
:100ABC00A807088002C333D8FC30E704D2C08002F8
:100ACC00C2C07F01120C1BD2C17F01120C1B054747
:0C0ADC00C3E5476480948840D1020B1EE3
:100AE800E4F55630C1FD7F01120C1BAF56E557A83F
:100AF80007088002C333D8FCF55730C005435701B7
:100B0800800020C1FD7F01120C1B0556E556C394D9
:050B18000840D0AF57BA
:010B1D0022B5
:0809DE008F418B428A438944DA
:1009E600E4F545120C08AB42AA43A9448545827535
:1009F60083001206C154FEFF120AAA754501E54599
:100A0600C395415017AB42AA43A9448545827583D5
:0F0A1600001206C1FF120AAA054580E2020BDE9C
:060C290078000078400095
:1000160065B00000000000000000000000000000C5
:1000260000000000000000F800000000000000339F
:100036003000000000100C06100C06000000000046
:100046000000000040C07840C0784000043F04042F
:100056003F040400007088FC08300000001820FFF0
:10006600211E0000F008F000E018000000211C032B
:100076001E211E0000F00888700000001E212324A7
:100086001927211010160E000000000000000000C5
:1000960000000000000000E0180402000000000755
:1000A6001820400000020418E0000000004020185C
:1000B60007000000404080F0804040000202010F2F
:1000C60001020200000000F0000000000101011F13
:1000D60001010100000000000000000080B0700077
:1000E6000000000000000000000000000001010107
:1000F6000101010100000000000000000030300096
:10010600000000000000000080601804006018066F
:100116000100000000E010080810E000000F1020A9
:1001260020100F00001010F8000000000020203FF3
:10013600202000000070080808887000003028247D
:10014600222130000030088888483000001820201E
:1001560020110E000000C02010F800000007042443
:10016600243F240000F80888880808000019212088
:1001760020110E0000E0108888180000000F1120E2
:1001860020110E0000380808C83808000000003F9B
:10019600000000000070880808887000001C2221FA
:1001A60021221C0000E010080810E00000003122A7
:1001B60022110F00000000C0C00000000000003047
:1001C6003000000000000080000000000000806099
:1001D600000000000000804020100800000102041A
:1001E6000810200040404040404040000404040401
:1001F60004040400000810204080000000201008BD
:1002060004020100007048080808F00000000030F1
:1002160036010000C030C828E810E000071827247F
:1002260023140B000000C038E0000000203C23022D
:100236000227382008F8888888700000203F202090
:1002460020110E00C03008080808380007182020C2
:100256002010080008F808080810E000203F2020B9
:1002660020100F0008F88888E8081000203F20209A
:100276002320180008F88888E8081000203F20008E
:1002860003000000C03008080838000007182020C6
:10029600221E020008F808000008F808203F210185
:1002A60001213F20000808F8080800000020203F30
:1002B6002020000000000808F8080800C0808080A0
:1002C6007F00000008F888C028180800203F200199
:1002D6002638200008F8080000000000203F2020F3
:1002E6002020300008F8F800F8F80800203F003F0A
:1002F600003F200008F830C00008F808203F200022
:1003060007183F00E01008080810E0000F10202032
:1003160020100F0008F808080808F000203F210107
:1003260001010000E01008080810E0000F1824245E
:1003360038504F0008F8888888887000203F2000D1
:10034600030C302000708808080838000038202187
:1003560021221C00180808F8080818000000203F91
:100366002000000008F808000008F808001F2020F8
:1003760020201F000878880000C8380800000738C9
:100386000E010000F80800F80008F800033C07001A
:10039600073C0300081868808068180820302C0382
:1003A600032C30200838C800C83808000000203F59
:1003B6002000000010080808C83808002038262148
:1003C60020201800000000FE020202000000007F4C
:1003D60040404000000C30C000000000000000015A
:1003E6000638C00000020202FE0000000040404045
:1003F6007F0000000000040202020400000000006A
:1004060000000000000000000000000080808080E6
:1004160080808080000202040000000000000000CE
:100426000000000000008080808000000019242267
:1004360022223F2008F8008080000000003F1120A3
:1004460020110E000000008080800000000E1120A8
:1004560020201100000000808088F800000E112086
:1004660020103F200000808080800000001F222294
:1004760022221300008080F0888888180020203F00
:10048600202000000000808080808000006B949413
:100496009493600008F8008080800000203F2100CF
:1004A60000203F2000809898000000000020203F98
:1004B60020200000000000809898000000C0808086
:1004C600807F000008F8000080808000203F240222
:1004D6002D302000000808F8000000000020203F12
:1004E600202000008080808080808000203F2000C7
:1004F6003F20003F8080008080800000203F210058
:1005060000203F200000808080800000001F202007
:1005160020201F00808000808000000080FFA12036
:1005260020110E000000008080808000000E112047
:1005360020A0FF80808080008080800020203F21D6
:100546002000010000008080808080000033242489
:1005560024241900008080E0808000000000001F35
:10056600202000008080000000808000001F2020E6
:1005760020103F20808080000080808000010E30A7
:100586000806010080800080008080800F300C0308
:100596000C300F0000808000808080000020312E0B
:1005A6000E312000808080000080808080818E70E7
:1005B6001806010000808080808080000021302C99
:0405C60022213000BE
:0A07E0008F308D318B328A3389345B
:1007EA00E4F535F536F537AB32AA33A934853782C5
:1007FA007583001206C1700302088C24E0F535E502
:10080A0030D394784005E4F5300531AD31AF30127C
:10081A000BA5E4F53675F010E535A42536F582E426
:10082A0035F0F583E5822400F582E5833400F5830B
:10083A00E0FF7D441209900536E536C3940840D599
:10084A00E53104FDAF30120BA5E4F53675F010E57D
:10085A0035A42536F582E435F0F583E5822408F5DA
:10086A0082E5833400F583E0FF7D44120990053662
:10087A00E536C3940840D574082530F530053702AB
:02088A0007F174
:01088C002249
:1006EE007D437FAE1209907D43E4FF1209907D4356
:1006FE007F101209907D437F401209907D437F81C8
:10070E001209907D437FCF1209907D437FA112097C
:10071E00907D437FC81209907D437FA61209907D7C
:10072E00437FA81209907D437F3F1209907D437F3E
:10073E00D31209907D43E4FF1209907D437FD512B9
:10074E0009907D437F801209907D437FD9120990D5
:10075E007D437FF11209907D437FDA1209907D432C
:10076E007F121209907D437FDB1209907D437F40FB
:10077E001209907D437F201209907D437F0212095A
:10078E00907D437F8D1209907D437F141209907DD9
:10079E00437FA41209907D437FA61209907D437F6B
:1007AE00AF120990E4FF120B7F7F01120B7F7F02C5
:1007BE00120B7F7F03120B7F7F04120B7F7F0512BC
:1007CE000B7F7F06120B7F7F07120B7FE4FDFF026C
:0207DE000BA569
:100B7F00EF12098B7D437F011209907D437F101285
:100B8F000990E4F5307D44E4FF1209900530E5301B
:050B9F00C3948040F04A
:010BA400222E
:100BA5008F38ED12098BE53854F0C4540F4410FF0B
:100BB5007D43120990E538540F4401FF7D43020936
:010BC500909F
:05098B0024B0FF7D43D4
:040990008F398D3AD4
:10099400783B7C007D007BFF7A0C79297E007F0305
:1009A40012069B783E7C007D007BFF7A0C792C7EBE
:1009B400007F0312069B85393D853940E53AB443EF
:1009C400087B007A00793B800BE53AB4440B7B004A
:0909D4007A00793E7F031209DE6E
:0109DD0022F7
:10089900020B53E493A3F8E493A34003F68001F217
:1008A90008DFF48029E493A3F85407240CC8C33360
:1008B900C4540F4420C8834004F456800146F6DF2F
:1008C900E4800B0102040810204080900003E47EBC
:1008D900019360BCA3FF543F30E509541FFEE49324
:1008E900A360010ECF54C025E060A840B8E493A3EB
:1008F900FAE493A3F8E493A3C8C582C8CAC583CA16
:10090900F0A3C8C582C8CAC583CADFE9DEE780BECD
:0105CA000030
:1005CB00E709F608DFFA8046E709F208DFFA803E12
:1005DB0088828C83E709F0A3DFFA8032E309F608FF
:1005EB00DFFA8078E309F208DFFA807088828C8367
:1005FB00E309F0A3DFFA806489828A83E0A3F6081B
:10060B00DFFA805889828A83E0A3F208DFFA804CF4
:10061B0080D280FA80C680D4806980F280338010CB
:10062B0080A680EA809A80A880DA80E280CA803334
:10063B0089828A83ECFAE493A3C8C582C8CCC583AC
:10064B00CCF0A3C8C582C8CCC583CCDFE9DEE7807C
:10065B000D89828A83E493A3F608DFF9ECFAA9F0FB
:10066B00EDFB2289828A83ECFAE0A3C8C582C8CC51
:10067B00C583CCF0A3C8C582C8CCC583CCDFEADE6A
:10068B00E880DB89828A83E493A3F208DFF980CCCC
:10069B0088F0EF60010E4E60C388F0ED2402B404C5
:1006AB000050B9F582EB2402B4040050AF2323456C
:0606BB00822390061B7370
:1006C100BB010CE58229F582E5833AF583E02250EE
:1006D10006E92582F8E622BBFE06E92582F8E22238
:0D06E100E58229F582E5833AF583E4932252
:00000001FF
