:0300000002087A79
:0C087A00787FE4F6D8FD7581230208C1E8
:100AEB00D2C0D2C17F01120B11C2C07F01120B11F8
:030AFB00C2C12253
:100A1400E4F520C2C1C2C07F01120B11D2C030C0A4
:100A24001A05207F01120B11C3E5206480948A40CB
:100A3400EDD2C17F01120B117F0022D2C17F0112BE
:040A44000B117F0112
:010A4800228B
:100AD400C2C0C2C17F01120B11D2C17F01120B111E
:070AE400D2C07F01020B11DB
:0209A0008F1EA8
:1009A200C2C17F01120B11E4F51FC2C1AF1FE51EC8
:1009B200A807088002C333D8FC30E704D2C0800203
:1009C200C2C07F01120B11D2C17F01120B11051F90
:0C09D200C3E51F6480948840D1020A1421
:1009DE00E4F52130C1FD7F01120B11AF21E522A8F4
:1009EE0007088002C333D8FCF52230C0054322012C
:1009FE00800020C1FD7F01120B110521E521C3945A
:050A0E000840D0AF22FA
:010A130022C0
:080959008F198B1A8A1B891CFF
:10096100E4F51D120AEBAB1AAA1BA91C851D8275A1
:1009710083001206AE54FEFF1209A0751D01E51D8C
:10098100C395195017AB1AAA1BA91C851D82758323
:0F099100001206AEFF1209A0051D80E2020AD473
:0C0B1F0048656C6C6F00576F726C6400CE
:100A49007F01120ABC1206DB7BFF7A0B791FE4FDDA
:100A5900FF1207CD7F0A120ABC7BFF7A0B7925E4C6
:0C0A6900FDFF1207CD7F0A120ABC80DCE2
:0D0B1100EFD3940040077E47DEFE1F80F307
:010B1E0022B4
:100AFE00EFD39400400C007E1E7D28DDFEDEFC1F31
:020B0E0080EE77
:010B100022C2
:100ABC00EFD39400401100007E0D7D2D7CD6DCFE22
:070ACC00DDFCDEFA1F80E9EA
:010AD3002200
:060B2B0078000078400094
:1000030065B00000000000000000000000000000D8
:1000130000000000000000F80000000000000033B2
:100023003000000000100C06100C06000000000059
:100033000000000040C07840C0784000043F040442
:100043003F040400007088FC08300000001820FF03
:10005300211E0000F008F000E018000000211C033E
:100063001E211E0000F00888700000001E212324BA
:100073001927211010160E000000000000000000D8
:1000830000000000000000E0180402000000000768
:100093001820400000020418E0000000004020186F
:1000A30007000000404080F0804040000202010F42
:1000B30001020200000000F0000000000101011F26
:1000C30001010100000000000000000080B070008A
:1000D300000000000000000000000000000101011A
:1000E30001010101000000000000000000303000A9
:1000F3000000000000000000806018040060180683
:100103000100000000E010080810E000000F1020BC
:1001130020100F00001010F8000000000020203F06
:100123002020000000700808088870000030282490
:100133002221300000300888884830000018202031
:1001430020110E000000C02010F800000007042456
:10015300243F240000F8088888080800001921209B
:1001630020110E0000E0108888180000000F1120F5
:1001730020110E0000380808C83808000000003FAE
:10018300000000000070880808887000001C22210D
:1001930021221C0000E010080810E00000003122BA
:1001A30022110F00000000C0C0000000000000305A
:1001B30030000000000000800000000000008060AC
:1001C300000000000000804020100800000102042D
:1001D3000810200040404040404040000404040414
:1001E30004040400000810204080000000201008D0
:1001F30004020100007048080808F0000000003005
:1002030036010000C030C828E810E0000718272492
:1002130023140B000000C038E0000000203C230240
:100223000227382008F8888888700000203F2020A3
:1002330020110E00C03008080808380007182020D5
:100243002010080008F808080810E000203F2020CC
:1002530020100F0008F88888E8081000203F2020AD
:100263002320180008F88888E8081000203F2000A1
:1002730003000000C03008080838000007182020D9
:10028300221E020008F808000008F808203F210198
:1002930001213F20000808F8080800000020203F43
:1002A3002020000000000808F8080800C0808080B3
:1002B3007F00000008F888C028180800203F2001AC
:1002C3002638200008F8080000000000203F202006
:1002D3002020300008F8F800F8F80800203F003F1D
:1002E300003F200008F830C00008F808203F200035
:1002F30007183F00E01008080810E0000F10202046
:1003030020100F0008F808080808F000203F21011A
:1003130001010000E01008080810E0000F18242471
:1003230038504F0008F8888888887000203F2000E4
:10033300030C30200070880808083800003820219A
:1003430021221C00180808F8080818000000203FA4
:100353002000000008F808000008F808001F20200B
:1003630020201F000878880000C8380800000738DC
:100373000E010000F80800F80008F800033C07002D
:10038300073C0300081868808068180820302C0395
:10039300032C30200838C800C83808000000203F6C
:1003A3002000000010080808C8380800203826215B
:1003B30020201800000000FE020202000000007F5F
:1003C30040404000000C30C000000000000000016D
:1003D3000638C00000020202FE0000000040404058
:1003E3007F0000000000040202020400000000007D
:1003F30000000000000000000000000080808080FA
:1004030080808080000202040000000000000000E1
:10041300000000000000808080800000001924227A
:1004230022223F2008F8008080000000003F1120B6
:1004330020110E000000008080800000000E1120BB
:1004430020201100000000808088F800000E112099
:1004530020103F200000808080800000001F2222A7
:1004630022221300008080F0888888180020203F13
:10047300202000000000808080808000006B949426
:100483009493600008F8008080800000203F2100E2
:1004930000203F2000809898000000000020203FAB
:1004A30020200000000000809898000000C0808099
:1004B300807F000008F8000080808000203F240235
:1004C3002D302000000808F8000000000020203F25
:1004D300202000008080808080808000203F2000DA
:1004E3003F20003F8080008080800000203F21006B
:1004F30000203F200000808080800000001F20201B
:1005030020201F00808000808000000080FFA12049
:1005130020110E000000008080808000000E11205A
:1005230020A0FF80808080008080800020203F21E9
:10053300200001000000808080808000003324249C
:1005430024241900008080E0808000000000001F48
:10055300202000008080000000808000001F2020F9
:1005630020103F20808080000080808000010E30BA
:100573000806010080800080008080800F300C031B
:100583000C300F0000808000808080000020312E1E
:100593000E312000808080000080808080818E70FA
:1005A3001806010000808080808080000021302CAC
:0405B30022213000D1
:0A07CD008F088D098B0A8A0B890C36
:1007D700E4F50DF50EF50FAB0AAA0BA90C850F82F0
:1007E7007583001206AE700302087924E0F50DE563
:1007F70008D394784005E4F5080509AD09AF081258
:100807000A9BE4F50E75F010E50DA4250EF582E4BC
:1008170035F0F583E5822400F582E5833400F5831E
:10082700E0FF7D4412090B050EE50EC3940840D581
:10083700E50904FDAF08120A9BE4F50E75F010E513
:100847000DA4250EF582E435F0F583E5822408F53D
:1008570082E5833400F583E0FF7D4412090B050E22
:10086700E50EC3940840D574082508F508050F025E
:0208770007DE9A
:01087900225C
:1006DB007D437FAE12090B7D43E4FF12090B7D4373
:1006EB007F1012090B7D437F4012090B7D437F81E5
:1006FB0012090B7D437FCF12090B7D437FA112099A
:10070B000B7D437FC812090B7D437FA612090B7D1E
:10071B00437FA812090B7D437F3F12090B7D437F5B
:10072B00D312090B7D43E4FF12090B7D437FD512D6
:10073B00090B7D437F8012090B7D437FD912090B77
:10074B007D437FF112090B7D437FDA12090B7D4349
:10075B007F1212090B7D437FDB12090B7D437F4018
:10076B0012090B7D437F2012090B7D437F02120977
:10077B000B7D437F8D12090B7D437F1412090B7D7B
:10078B00437FA412090B7D437FA612090B7D437F88
:10079B00AF12090BE4FF120A757F01120A757F0273
:1007AB00120A757F03120A757F04120A757F0512F0
:1007BB000A757F06120A757F07120A75E4FDFF02A0
:0207CB000A9B87
:100A7500EF1209067D437F0112090B7D437F10129A
:100A8500090BE4F5087D44E4FF12090B0508E508A8
:050A9500C3948040F055
:010A9A002239
:100A9B008F10ED120906E51054F0C4540F4410FFEB
:100AAB007D4312090BE510540F4401FF7D430209EE
:010ABB000B2F
:0509060024B0FF7D4359
:04090B008F118D12A9
:10090F0078137C007D007BFF7A0B792B7E007F03B1
:10091F0012068878167C007D007BFF7A0B792E7E7D
:10092F00007F03120688851115851118E512B4434F
:10093F00087B007A007913800BE512B4440B7B001F
:09094F007A0079167F03120959A0
:01095800227C
:10088600020A49E493A3F8E493A34003F68001F235
:1008960008DFF48029E493A3F85407240CC8C33373
:1008A600C4540F4420C8834004F456800146F6DF42
:1008B600E4800B0102040810204080900003E47ECF
:1008C600019360BCA3FF543F30E509541FFEE49337
:1008D600A360010ECF54C025E060A840B8E493A3FE
:1008E600FAE493A3F8E493A3C8C582C8CAC583CA29
:1008F600F0A3C8C582C8CAC583CADFE9DEE780BEE1
:0105B7000043
:1005B800E709F608DFFA8046E709F208DFFA803E25
:1005C80088828C83E709F0A3DFFA8032E309F60812
:1005D800DFFA8078E309F208DFFA807088828C837A
:1005E800E309F0A3DFFA806489828A83E0A3F6082E
:1005F800DFFA805889828A83E0A3F208DFFA804C08
:1006080080D280FA80C680D4806980F280338010DE
:1006180080A680EA809A80A880DA80E280CA803347
:1006280089828A83ECFAE493A3C8C582C8CCC583BF
:10063800CCF0A3C8C582C8CCC583CCDFE9DEE7808F
:100648000D89828A83E493A3F608DFF9ECFAA9F00E
:10065800EDFB2289828A83ECFAE0A3C8C582C8CC64
:10066800C583CCF0A3C8C582C8CCC583CCDFEADE7D
:10067800E880DB89828A83E493A3F208DFF980CCDF
:1006880088F0EF60010E4E60C388F0ED2402B404D8
:100698000050B9F582EB2402B4040050AF2323457F
:0606A80082239006087396
:1006AE00BB010CE58229F582E5833AF583E0225001
:1006BE0006E92582F8E622BBFE06E92582F8E2224B
:0D06CE00E58229F582E5833AF583E4932265
:00000001FF
