:0300000002000EED
:0C000E00787FE4F6D8FD758128020055CB
:07021B00012100022204D2C0
:10016D0012023FD2AF75220175233A00007FD27E75
:10017D00227D99DDFEDEFCDFFA752206752338003F
:10018D00007FD27E227D99DDFEDEFCDFFA75220036
:10019D0075230600007FD27E227D99DDFEDEFCDF19
:0301AD00FA80C213
:03000B000201B03F
:1001B000C0E0C0F0C083C082C0D075D000C000C015
:1001C00001C002C003C004C005C006C007AF23AE13
:1001D0002212009AD007D006D005D004D003D00256
:0F01E000D001D000D0D0D082D083D0F0D0E03288
:10023F00538E7F5389F0758AF0758CD8C28DD28C0E
:03024F00D2A9220F
:100222001011C0F9A4B0999282F880908883C6A177
:0C023200868E080901020304050000008C
:04009A008E258F26FA
:10009E00752700752801E4FBAC27AD28AE25AF26E9
:1000AE001201187C007D0A12011874092BF8A6059E
:1000BE00AE27AF287C007D0A1201068E278F280BF3
:1000CE00BB04D5AF0805081201EFE508D394034031
:1000DE0003E4F508E50C701FE508C394024018E52B
:1000EE0008D394024003E4F508E50B700AE508D343
:0700FE0094014003E4F50842
:0101050022D7
:1001EF007E0143900F74092FF8E62411F8E6F5A06D
:1001FF00BF010353A07FEFD394034002E4FFEEA8A7
:0B020F0007088002C333D8FCF45290B3
:01021A0022C1
:10001A0002016DE493A3F8E493A34003F68001F28E
:10002A0008DFF48029E493A3F85407240CC8C333E7
:10003A00C4540F4420C8834004F456800146F6DFB6
:10004A00E4800B010204081020408090021BE47E29
:10005A00019360BCA3FF543F30E509541FFEE493AB
:10006A00A360010ECF54C025E060A840B8E493A372
:10007A00FAE493A3F8E493A3C8C582C8CAC583CA9D
:10008A00F0A3C8C582C8CAC583CADFE9DEE780BE55
:01023E0000BF
:10010600EF8DF0A4A8F0CF8CF0A428CE8DF0A42E0D
:02011600FE22C7
:10011800BC000BBE0029EF8DF084FFADF022E4CCCB
:10012800F875F008EF2FFFEE33FEEC33FCEE9DEC94
:10013800984005FCEE9DFE0FD5F0E9E4CEFD22EDDA
:10014800F8F5F0EE8420D21CFEADF075F008EF2F24
:10015800FFED33FD4007985006D5F0F222C398FD15
:050168000FD5F0EA22B2
:00000001FF
